:100000000C9446000C9465000C9465000C946500FB
:100010000C9465000C9465000C9465000C946500CC
:100020000C9465000C9465000C9465000C946500BC
:100030000C9465000C94DE000C9465000C94650033
:100040000C9465000C9465000C9465000C9465009C
:100050000C9465000C9465000C9465000C9465008C
:100060000C9465000C9465000C9465000C9465007C
:100070000C9465000C9465000C9465000C9465006C
:100080000C9465000C9465000C94650011241FBE4F
:10009000CFEFD0E4DEBFCDBF11E0A0E0B1E0E6E1FC
:1000A000F6E000E00BBF02C007900D92A231B1074D
:1000B000D9F721E0A2E1B1E001C01D92A232B2075E
:1000C000E1F70E9476020C9409030C940000CF9390
:1000D000DF9300D01F92CDB7DEB789837B836A831D
:1000E00089818A3031F48A819B81BC018DE00E9434
:1000F000670080EC90E0FC018081882F90E08072A6
:100100009927892BB1F386EC90E02981FC012083AB
:1001100080E090E00F900F900F90DF91CF910895C5
:10012000CF93DF93CDB7DEB781E890E02BE0FC0101
:10013000208388E890E02DE730E0FC0131832083C4
:100140008FE690E022E0FC01208384E890E0FC014F
:100150001182108280910E0190910F01A0911001E7
:10016000B09111018093130190931401A093150194
:10017000B09316018FE590E02FE530E0F901208182
:100180002068FC0120830000DF91CF910895CF9378
:10019000DF93CDB7DEB781E890E0FC01108200006C
:1001A000DF91CF910895CF93DF93CDB7DEB781E094
:1001B000809312010000DF91CF9108951F920F925A
:1001C00000905F000F92112400905B000F922F931C
:1001D0003F934F935F936F937F938F939F93AF93CF
:1001E000BF93EF93FF93CF93DF93CDB7DEB78091AB
:1001F000130190911401A0911501B091160101977E
:10020000A109B1098093130190931401A0931501E2
:10021000B09316018091130190911401A0911501E2
:10022000B0911601892B8A2B8B2B91F40E94D3005D
:1002300080910E0190910F01A0911001B0911101D8
:100240008093130190931401A0931501B0931601AC
:100250000000DF91CF91FF91EF91BF91AF919F91FE
:100260008F917F916F915F914F913F912F910F905F
:1002700000925B000F9000925F000F901F90189506
:10028000CF93DF9300D000D0CDB7DEB769837A83F8
:100290008B839C8389819A81AB81BC8180930E0181
:1002A00090930F01A0931001B093110180910E0162
:1002B00090910F01A0911001B09111018093130151
:1002C00090931401A0931501B093160100000F90B4
:1002D0000F900F900F90DF91CF910895CF93DF9300
:1002E000CDB7DEB78091170190911801813091054B
:1002F00081F08130910530F08230910589F00397CB
:10030000B1F01CC081E090E0909318018093170138
:1003100015C082E090E090931801809317010EC001
:1003200083E090E0909318018093170107C081E06B
:1003300090E09093180180931701000080911701BD
:10034000909118018230910551F08330910559F058
:10035000019709F00CC081E08093190108C082E088
:100360008093190104C084E080931901000000000B
:10037000DF91CF910895CF93DF93CDB7DEB7809112
:100380001C0190911D018130910569F0813091052A
:1003900018F0029779F015C081E090E090931D016C
:1003A00080931C0115C082E090E090931D01809322
:1003B0001C010EC081E090E090931D0180931C0110
:1003C00007C081E090E090931D0180931C01000024
:1003D00080911C0190911D018130910519F00297C7
:1003E00021F007C01092200104C088E08093200112
:1003F00000000000DF91CF910895CF93DF93CDB738
:10040000DEB780911A0190911B018130910569F04E
:100410008130910518F0029779F015C081E090E0E5
:1004200090931B0180931A0112C082E090E0909398
:100430001B0180931A010BC081E090E090931B0197
:1004400080931A0104C010921B0110921A0180912E
:100450001A0190911B018130910519F0029721F04A
:1004600007C01092210104C080E1809321010000A7
:100470000000DF91CF910895CF93DF93CDB7DEB722
:1004800080911E0190911F01009719F0019741F092
:100490000EC081E090E090931F0180931E010EC07A
:1004A00081E090E090931F0180931E0107C081E0DE
:1004B00090E090931F0180931E01000080911E0127
:1004C00090911F01019709F00DC085E290E03091F5
:1004D000190120912001322B20912101232BFC01B5
:1004E000208300000000DF91CF910895CF93DF9328
:1004F000CDB7DEB72C970FB6F894DEBF0FBECDBFD9
:1005000084E290E02FEFFC01208385E290E0FC0183
:1005100010828CE291E0A0E0B0E089839A83AB8303
:10052000BC8388EE93E0A0E0B0E08D839E83AF8330
:10053000B88786E990E0A0E0B0E089879A87AB872A
:10054000BC8761E070E080E090E00E9440010E9482
:100550009000109218011092170110921D01109234
:100560001C0189819A81AB81BC818C329140A105AB
:10057000B10530F00E946E0119821A821B821C8222
:100580008D819E81AF81B885883E9340A105B105DC
:1005900030F00E94BB011D821E821F821886898551
:1005A0009A85AB85BC8586399105A105B10530F0EA
:1005B0000E94FD0119861A861B861C860E943C0239
:1005C0000000809112018823E1F3109212018981C9
:1005D0009A81AB81BC810196A11DB11D89839A834B
:1005E000AB83BC838D819E81AF81B8850196A11DAF
:1005F000B11D8D839E83AF83B88789859A85AB852E
:10060000BC850196A11DB11D89879A87AB87BC87E0
:06061000A8CFF894FFCF13
:10061600000000020000000067000000000001006A
:020626000000D2
:00000001FF
