:100000000C944E000C946D000C946D000C946D00DB
:100010000C946D000C946D000C946D000C946D00AC
:100020000C946D000C946D000C946D000C946D009C
:100030000C946D000C94AD010C946D000C946D004B
:100040000C946D000C946D000C946D000C946D007C
:100050000C946D000C946D000C946D000C946D006C
:100060000C946D000C946D000C946D000C946D005C
:100070000C946D000C946D000C946D000C946D004C
:100080000C946D000C946D000C946D0068036F036C
:1000900076037D0384038B039203990311241FBE0F
:1000A000CFEFD0E4DEBFCDBF11E0A0E0B1E0EEE4E1
:1000B000FDE000E00BBF02C007900D92AE31B1072A
:1000C000D9F721E0AEE1B1E001C01D92A333B20740
:1000D000E1F70E9445040C94A5060C940000CF9310
:1000E000DF9300D01F92CDB7DEB789837B836A830D
:1000F00089818A3031F48A819B81BC018DE00E9424
:100100006F0080EC90E0FC018081882F90E080728D
:100110009927892BB1F386EC90E02981FC0120839B
:1001200080E090E00F900F900F90DF91CF910895B5
:100130000F931F93CF93DF9300D000D0CDB7DEB7DE
:1001400069837A838B839C8380912301909124011E
:10015000A0912501B09126019C01AD0169817A81B0
:100160008B819C810E941105882309F477C020E0CF
:1001700030E0A90169817A818B819C810E941105FF
:10018000882351F481E990E021E930E0F9012081F0
:100190002870FC01208309C081E990E021E930E06A
:1001A000F90120812360FC01208328E539E344E73D
:1001B0005FE369817A818B819C810E94110588238C
:1001C00044F488E990E02FEF3FEFFC013183208376
:1001D00034C020E034E244EF56E469817A818B81B7
:1001E0009C810E943306181634F488E990E0FC01E3
:1001F0001182108222C008E910E020E030E040E0E7
:1002000053E469817A818B819C810E943806DC01EC
:10021000CB019C01AD0160E074E284EF9AE40E949E
:100220001605DC01CB01BC01CD010E948805DC0173
:10023000CB010197F8019183808384E990E0FC0170
:100240001182108289819A81AB81BC8180932301C4
:1002500090932401A0932501B093260100000F90F4
:100260000F900F900F90DF91CF911F910F910895F4
:10027000CF93DF93CDB7DEB780E990E020E4FC01B7
:10028000208381E990E02BE0FC01208360E070E0B6
:10029000CB010E9498000000DF91CF910895CF9389
:1002A000DF93CDB7DEB780E990E0FC01108281E9F1
:1002B00090E0FC0110820000DF91CF910895CF9370
:1002C000DF93CDB7DEB781E890E02BE0FC0120831F
:1002D00088E890E02DE730E0FC01318320838FE651
:1002E00090E022E0FC01208384E890E0FC01118290
:1002F000108280911A0190911B01A0911C01B09174
:100300001D0180931F0190932001A0932101B093C0
:1003100022018FE590E02FE530E0F901208120688F
:10032000FC0120830000DF91CF910895CF93DF93EC
:10033000CDB7DEB781E890E0FC0110820000DF91CC
:10034000CF910895CF93DF93CDB7DEB781E080934F
:100350001E010000DF91CF9108951F920F9200902F
:100360005F000F92112400905B000F922F933F9338
:100370004F935F936F937F938F939F93AF93BF93AD
:10038000EF93FF93CF93DF93CDB7DEB780911F013B
:1003900090912001A0912101B09122010197A10922
:1003A000B10980931F0190932001A0932101B09384
:1003B000220180911F0190912001A0912101B09113
:1003C0002201892B8A2B8B2B91F40E94A201809110
:1003D0001A0190911B01A0911C01B0911D01809305
:1003E0001F0190932001A0932101B09322010000EE
:1003F000DF91CF91FF91EF91BF91AF919F918F913D
:100400007F916F915F914F913F912F910F9000924B
:100410005B000F9000925F000F901F901895CF9394
:10042000DF9300D000D0CDB7DEB769837A838B83AA
:100430009C8389819A81AB81BC8180931A019093BE
:100440001B01A0931C01B0931D0180911A01909192
:100450001B01A0911C01B0911D0180931F0190937D
:100460002001A0932101B093220100000F900F9072
:100470000F900F90DF91CF910895CF93DF93CDB779
:10048000DEB780912701909128018130910581F09C
:100490008130910530F08230910589F00397B1F0F9
:1004A0001CC081E090E0909328018093270115C043
:1004B00082E090E090932801809327010EC083E0B2
:1004C00090E0909328018093270107C081E090E09D
:1004D000909328018093270100008091270190913B
:1004E00028018230910551F08330910559F0019730
:1004F00009F00CC081E080932A0108C082E080935B
:100500002A0104C084E080932A0100000000DF91EA
:10051000CF910895CF93DF93CDB7DEB780912E01B1
:1005200090912F018130910569F08130910518F08B
:10053000029779F015C081E090E090932F018093AD
:100540002E0115C082E090E090932F0180932E0140
:100550000EC081E090E090932F0180932E0107C0A0
:1005600081E090E090932F0180932E010000809114
:100570002E0190912F018130910519F0029721F001
:1005800007C01092310104C088E08093310100005F
:100590000000DF91CF910895CF93DF93CDB7DEB701
:1005A00080912C0190912D018230910509F453C066
:1005B0008330910528F4009779F00197B1F018C1C4
:1005C0008430910509F455C08430910508F44AC07F
:1005D000059709F4D6C00CC181E090E090932D01FD
:1005E00080932C011092290107C180912B01882F43
:1005F00090E084709927892B39F084E090E0909303
:100600002D0180932C0124C080912B01882F90E034
:1006100081709927892B39F082E090E090932D0129
:1006200080932C0115C080912B01882F90E082705F
:100630009927892B39F083E090E090932D018093E6
:100640002C0106C081E090E090932D0180932C0155
:1006500010923201D1C081E090E090932D018093FF
:100660002C01CAC081E090E090932D0180932C0171
:10067000C3C080912B01882309F46FC080912901A8
:10068000282F30E040E050E0809116019091170152
:10069000A0911801B0911901281739074A075B0783
:1006A00008F05BC080913001882F90E0092E000C8B
:1006B000AA0BBB0B41E050E027E030E0841B950B18
:1006C00028173907E8F18A5B9F4FFC010C94080555
:1006D00064EA70ED82E893E40E94980032C06BE710
:1006E00074ED82E993E40E9498002BC064EA70EDF7
:1006F00084EA93E40E94980024C061E77DE98EEAD1
:1007000093E40E9498001DC060E070E084EC93E4E4
:100710000E94980016C060E070E08CED93E40E94A7
:1007200098000FC064EA70EF86EF93E40E9498008F
:1007300008C060E070E08AEF93E40E94980001C076
:10074000000084E090E090932D0180932C01809133
:1007500029018F5F809329014FC080912B0188234D
:1007600049F085E090E090932D0180932C01109248
:10077000290142C081E090E090932D0180932C01EB
:100780003BC080912B018823F9F080912901282F0B
:1007900030E040E050E08091160190911701A09167
:1007A0001801B0911901281739074A075B0760F44F
:1007B00085E090E090932D0180932C018091290198
:1007C0008F5F8093290118C080912B01882349F005
:1007D00084E090E090932D0180932C0110922901E8
:1007E0000BC081E090E090932D0180932C0104C018
:1007F00010922D0110922C0180912C0190912D01CD
:1008000083309105E9F08430910518F4029771F076
:1008100024C08430910531F0059709F01EC0109274
:1008200032011BC080E18093320117C080913001FA
:10083000883081F0809130018F5F809330010AC051
:1008400080913001813041F080913001815080935E
:10085000300102C0000001C000000000DF91CF9114
:100860000895CF93DF93CDB7DEB785E290E0309166
:100870002A0120913101322B20913201232BFC01DE
:1008800020830000DF91CF910895CF93DF93CDB700
:10089000DEB781E290E0FC01108282E290E02FE07E
:1008A000FC01208384E290E02FEFFC01208385E2AD
:1008B00090E0FC01108261E070E080E090E00E9436
:1008C0000F020E945F0110922801109227011092DE
:1008D0002F0110922E0110922D0110922C0181E017
:1008E000809330010E94380160E070E0CB010E94EB
:1008F000980080E290E0FC01808180958470809374
:100900002B018091120190911301A0911401B091DB
:100910001501883E9340A105B10550F00E948A025E
:1009200010921201109213011092140110921501ED
:1009300080910E0190910F01A0911001B0911101D1
:100940008C329140A105B10550F00E943D021092F9
:100950000E0110920F01109210011092110180915E
:10096000160190911701A0911801B09119010397F8
:10097000A105B10550F00E94CC0210921601109210
:10098000170110921801109219010E943104000001
:1009900080911E018823E1F310921E0180910E01C7
:1009A00090910F01A0911001B09111010196A11D2C
:1009B000B11D80930E0190930F01A0931001B0938D
:1009C00011018091120190911301A0911401B09135
:1009D00015010196A11DB11D809312019093130181
:1009E000A0931401B0931501809116019091170105
:1009F000A0911801B09119010196A11DB11D80931C
:100A0000160190931701A0931801B093190171CFAB
:100A1000EE0FFF1F0024001C0BBE0790F691E02D87
:100A200009940E94BE0508F481E008950E942A05F9
:100A30000C94F9050E94F20558F00E94EB0540F075
:100A400029F45F3F29F00C94E20551110C942D0616
:100A50000C94E8050E940A0668F39923B1F3552324
:100A600091F3951B550BBB27AA27621773078407C1
:100A700038F09F5F5F4F220F331F441FAA1FA9F357
:100A800035D00E2E3AF0E0E832D091505040E69545
:100A9000001CCAF72BD0FE2F29D0660F771F881FA6
:100AA000BB1F261737074807AB07B0E809F0BB0B99
:100AB000802DBF01FF2793585F4F3AF09E3F5105AD
:100AC00078F00C94E2050C942D065F3FE4F3983E19
:100AD000D4F3869577956795B795F7959F5FC9F796
:100AE000880F911D9695879597F90895E1E0660F17
:100AF000771F881FBB1F621773078407BA0720F090
:100B0000621B730B840BBA0BEE1F88F7E0950895F8
:100B10000E948F056894B1110C942D0608950E94CF
:100B2000120688F09F5798F0B92F9927B751B0F067
:100B3000E1F0660F771F881F991F1AF0BA95C9F761
:100B400014C0B13091F00E942C06B1E008950C94CD
:100B50002C06672F782F8827B85F39F0B93FCCF380
:100B6000869577956795B395D9F73EF490958095DE
:100B7000709561957F4F8F4F9F4F0895990F000893
:100B8000550FAA0BE0E8FEEF16161706E807F9075F
:100B9000C0F012161306E407F50798F0621B730BFA
:100BA000840B950B39F40A2661F0232B242B252B7B
:100BB00021F408950A2609F4A140A6958FEF811D1E
:100BC000811D089597F99F6780E870E060E00895BF
:100BD0009FEF80EC089500240A9416161706180655
:100BE0000906089500240A94121613061406050631
:100BF0000895092E0394000C11F4882352F0BB0FC2
:100C000040F4BF2B11F460FF04C06F5F7F4F8F4F24
:100C10009F4F089557FD9058440F551F59F05F3F5F
:100C200071F04795880F97FB991F61F09F3F79F00E
:100C300087950895121613061406551FF2CF469590
:100C4000F1DF08C0161617061806991FF1CF869512
:100C50007105610508940895E894BB2766277727F6
:100C6000CB0197F908950E94BE0508F48FEF08950F
:100C70000E944B060C94F9050E94EB0538F00E9487
:100C8000F20520F0952311F00C94E2050C94E80590
:100C900011240C942D060E940A0670F3959FC1F34F
:100CA000950F50E0551F629FF001729FBB27F00D1A
:100CB000B11D639FAA27F00DB11DAA1F649F66276F
:100CC000B00DA11D661F829F2227B00DA11D621FBE
:100CD000739FB00DA11D621F839FA00D611D221F78
:100CE000749F3327A00D611D231F849F600D211D5C
:100CF000822F762F6A2F11249F5750409AF0F1F0DF
:100D000088234AF0EE0FFF1FBB1F661F771F881F47
:100D100091505040A9F79E3F510580F00C94E20598
:100D20000C942D065F3FE4F3983ED4F386957795B7
:100D30006795B795F795E7959F5FC1F7FE2B880FED
:0E0D4000911D9695879597F90895F894FFCF29
:100D4E0000000002000000006F00000000002C01F7
:0E0D5E000000E8030000020000000100000099
:00000001FF
