:100000000C9446000C9465000C9465000C946500FB
:100010000C9465000C9465000C9465000C946500CC
:100020000C9465000C9465000C9465000C946500BC
:100030000C9465000C94DE000C9465000C94650033
:100040000C9465000C9465000C9465000C9465009C
:100050000C9465000C9465000C9465000C9465008C
:100060000C9465000C9465000C9465000C9465007C
:100070000C9465000C9465000C9465000C9465006C
:100080000C9465000C9465000C94650011241FBE4F
:10009000CFEFD0E4DEBFCDBF11E0A0E0B1E0EAE0F9
:1000A000F7E000E00BBF02C007900D92AE31B10740
:1000B000D9F721E0AEE1B1E001C01D92AE32B20746
:1000C000E1F70E94CA020C9483030C940000CF93C2
:1000D000DF9300D01F92CDB7DEB789837B836A831D
:1000E00089818A3031F48A819B81BC018DE00E9434
:1000F000670080EC90E0FC018081882F90E08072A6
:100100009927892BB1F386EC90E02981FC012083AB
:1001100080E090E00F900F900F90DF91CF910895C5
:10012000CF93DF93CDB7DEB781E890E02BE0FC0101
:10013000208388E890E02DE730E0FC0131832083C4
:100140008FE690E022E0FC01208384E890E0FC014F
:100150001182108280911A0190911B01A0911C01C3
:10016000B0911D0180931F0190932001A093210164
:10017000B09322018FE590E02FE530E0F901208176
:100180002068FC0120830000DF91CF910895CF9378
:10019000DF93CDB7DEB781E890E0FC01108200006C
:1001A000DF91CF910895CF93DF93CDB7DEB781E094
:1001B00080931E010000DF91CF9108951F920F924E
:1001C00000905F000F92112400905B000F922F931C
:1001D0003F934F935F936F937F938F939F93AF93CF
:1001E000BF93EF93FF93CF93DF93CDB7DEB78091AB
:1001F0001F0190912001A0912101B091220101974E
:10020000A109B10980931F0190932001A0932101BE
:10021000B093220180911F0190912001A0912101B2
:10022000B0912201892B8A2B8B2B91F40E94D30051
:1002300080911A0190911B01A0911C01B0911D01A8
:1002400080931F0190932001A0932101B09322017C
:100250000000DF91CF91FF91EF91BF91AF919F91FE
:100260008F917F916F915F914F913F912F910F905F
:1002700000925B000F9000925F000F901F90189506
:10028000CF93DF9300D000D0CDB7DEB769837A83F8
:100290008B839C8389819A81AB81BC8180931A0175
:1002A00090931B01A0931C01B0931D0180911A0132
:1002B00090911B01A0911C01B0911D0180931F0121
:1002C00090932001A0932101B093220100000F9090
:1002D0000F900F900F90DF91CF910895CF93DF9300
:1002E000CDB7DEB780912301909124018130910533
:1002F00081F08130910530F08230910589F00397CB
:10030000B1F01CC081E090E0909324018093230120
:1003100015C082E090E090932401809323010EC0E9
:1003200083E090E0909324018093230107C081E053
:1003300090E0909324018093230100008091230199
:10034000909124018230910551F08330910559F04C
:10035000019709F00CC081E08093260108C082E07B
:100360008093260104C084E08093260100000000F1
:10037000DF91CF910895CF93DF93CDB7DEB7809112
:100380002A0190912B018130910569F0813091050E
:1003900018F0029779F015C081E090E090932B015E
:1003A00080932A0115C082E090E090932B01809306
:1003B0002A010EC081E090E090932B0180932A01E6
:1003C00007C081E090E090932B0180932A01000008
:1003D00080912A0190912B018130910519F00297AB
:1003E00021F007C010922C0104C088E080932C01FA
:1003F00000000000DF91CF910895CF93DF93CDB738
:10040000DEB780912801909129018130910599F002
:100410008130910538F08230910509F1039709F494
:1004200055C08BC081E090E0909329018093280112
:100430001092250186C080912701882339F082E03F
:1004400090E0909329018093280106C081E090E01C
:10045000909329018093280110922D0172C0809100
:1004600027018823F9F080912501282F30E040E012
:1004700050E08091160190911701A0911801B09160
:100480001901281739074A075B0760F482E090E0FA
:100490009093290180932801809125018F5F80939B
:1004A00025014FC080912701882349F083E090E027
:1004B00090932901809328011092250142C081E088
:1004C00090E090932901809328013BC080912701FF
:1004D0008823F9F080912501282F30E040E050E09A
:1004E0008091160190911701A0911801B091190106
:1004F000281739074A075B0760F483E090E0909380
:10050000290180932801809125018F5F8093250127
:1005100018C080912701882349F082E090E09093F1
:10052000290180932801109225010BC081E090E001
:10053000909329018093280104C010922901109200
:10054000280180912801909129018230910531F094
:10055000039709F007C010922D0104C080E1809339
:100560002D0100000000DF91CF910895CF93DF931C
:10057000CDB7DEB785E290E03091260120912C01C5
:10058000322B20912D01232BFC0120830000DF91D1
:10059000CF910895CF93DF93CDB7DEB781E290E09E
:1005A000FC01108282E290E02FE0FC01208384E2D3
:1005B00090E02FEFFC01208385E290E0FC011082A7
:1005C00061E070E080E090E00E9440010E949000B5
:1005D000109224011092230110922B0110922A01F3
:1005E000109229011092280180E290E0FC018081A4
:1005F000809584708093270180911201909113015E
:10060000A0911401B0911501883E9340A105B10558
:1006100050F00E94BB01109212011092130110922F
:1006200014011092150180910E0190910F01A0917B
:100630001001B09111018C329140A105B10550F02B
:100640000E946E0110920E0110920F011092100183
:10065000109211018091160190911701A09118013B
:10066000B09119010397A105B10550F00E94FD0159
:100670001092160110921701109218011092190190
:100680000E94B602000080911E018823E1F31092BF
:100690001E0180910E0190910F01A0911001B09167
:1006A00011010196A11DB11D80930E0190930F01C0
:1006B000A0931001B0931101809112019091130148
:1006C000A0911401B09115010196A11DB11D809357
:1006D000120190931301A0931401B093150180911E
:1006E000160190911701A0911801B091190101967E
:1006F000A11DB11D8093160190931701A0931801BD
:0A070000B093190171CFF894FFCFF8
:10070A0000000002000000006700000000002C0149
:0E071A000000E80300000200000001000000E3
:00000001FF
