:100000000C9446000C9465000C9465000C946500FB
:100010000C9465000C9465000C9465000C946500CC
:100020000C9465000C9465000C9465000C946500BC
:100030000C9465000C94DE000C9465000C94650033
:100040000C9465000C9465000C9465000C9465009C
:100050000C9465000C9465000C9465000C9465008C
:100060000C9465000C9465000C9465000C9465007C
:100070000C9465000C9465000C9465000C9465006C
:100080000C9465000C9465000C94650011241FBE4F
:10009000CFEFD0E4DEBFCDBF11E0A0E0B1E0E6E1FC
:1000A000F7E000E00BBF02C007900D92AE31B10740
:1000B000D9F721E0AEE1B1E001C01D92AF32B20745
:1000C000E1F70E94D4020C9489030C940000CF93B2
:1000D000DF9300D01F92CDB7DEB789837B836A831D
:1000E00089818A3031F48A819B81BC018DE00E9434
:1000F000670080EC90E0FC018081882F90E08072A6
:100100009927892BB1F386EC90E02981FC012083AB
:1001100080E090E00F900F900F90DF91CF910895C5
:10012000CF93DF93CDB7DEB781E890E02BE0FC0101
:10013000208388E890E02DE730E0FC0131832083C4
:100140008FE690E022E0FC01208384E890E0FC014F
:100150001182108280911A0190911B01A0911C01C3
:10016000B0911D0180931F0190932001A093210164
:10017000B09322018FE590E02FE530E0F901208176
:100180002068FC0120830000DF91CF910895CF9378
:10019000DF93CDB7DEB781E890E0FC01108200006C
:1001A000DF91CF910895CF93DF93CDB7DEB781E094
:1001B00080931E010000DF91CF9108951F920F924E
:1001C00000905F000F92112400905B000F922F931C
:1001D0003F934F935F936F937F938F939F93AF93CF
:1001E000BF93EF93FF93CF93DF93CDB7DEB78091AB
:1001F0001F0190912001A0912101B091220101974E
:10020000A109B10980931F0190932001A0932101BE
:10021000B093220180911F0190912001A0912101B2
:10022000B0912201892B8A2B8B2B91F40E94D30051
:1002300080911A0190911B01A0911C01B0911D01A8
:1002400080931F0190932001A0932101B09322017C
:100250000000DF91CF91FF91EF91BF91AF919F91FE
:100260008F917F916F915F914F913F912F910F905F
:1002700000925B000F9000925F000F901F90189506
:10028000CF93DF9300D000D0CDB7DEB769837A83F8
:100290008B839C8389819A81AB81BC8180931A0175
:1002A00090931B01A0931C01B0931D0180911A0132
:1002B00090911B01A0911C01B0911D0180931F0121
:1002C00090932001A0932101B093220100000F9090
:1002D0000F900F900F90DF91CF910895CF93DF9300
:1002E000CDB7DEB780912301909124018130910533
:1002F00081F08130910530F08230910589F00397CB
:10030000B1F01CC081E090E0909324018093230120
:1003100015C082E090E090932401809323010EC0E9
:1003200083E090E0909324018093230107C081E053
:1003300090E0909324018093230100008091230199
:10034000909124018230910551F08330910559F04C
:10035000019709F00CC081E08093250108C082E07C
:100360008093250104C084E08093250100000000F3
:10037000DF91CF910895CF93DF93CDB7DEB7809112
:10038000290190912A018130910569F08130910510
:1003900018F0029779F015C081E090E090932A015F
:1003A0008093290115C082E090E090932A01809308
:1003B00029010EC081E090E090932A0180932901E9
:1003C00007C081E090E090932A018093290100000A
:1003D0008091290190912A018130910519F00297AD
:1003E00021F007C010922D0104C088E080932D01F8
:1003F00000000000DF91CF910895CF93DF93CDB738
:10040000DEB780912701909128018130910569F034
:100410008130910518F00297E9F16FC081E090E01A
:10042000909328018093270170C080912601843029
:10043000B1F48091160190911701A0911801B0912B
:1004400019010297A105B10550F482E090E0909364
:1004500028018093270180E180932E0153C0809171
:100460002601843009F04EC0809116019091170149
:10047000A0911801B09119010497A105B10508F0E8
:1004800041C081E090E09093280180932701109271
:100490002E0138C0809126018430B1F4809116017C
:1004A00090911701A0911801B09119010297A1052F
:1004B000B10550F482E090E09093280180932701E9
:1004C00080E180932E0120C0809126018430E1F4E8
:1004D0008091160190911701A0911801B091190116
:1004E0000497A105B10580F481E090E09093280184
:1004F0008093270110922E0107C0109228011092BC
:10050000270103C0000001C00000809127019091E5
:1005100028018130910519F0029721F007C010924F
:100520002E0104C080E180932E0100000000DF91C5
:10053000CF910895CF93DF93CDB7DEB780912B0194
:1005400090912C01009719F0019741F00EC081E0C5
:1005500090E090932C0180932B010EC081E090E0FD
:1005600090932C0180932B0107C081E090E0909341
:100570002C0180932B01000080912B0190912C0184
:10058000019709F00DC085E290E03091250120919E
:100590002D01322B20912E01232BFC012083000002
:1005A0000000DF91CF910895CF93DF93CDB7DEB7F1
:1005B00084E290E02FEFFC01208385E290E0FC01D3
:1005C000108281E290E0FC01108282E290E024E05F
:1005D000FC01208380E290E0FC01808180958470A2
:1005E0008093260161E070E080E090E00E9440018D
:1005F0000E949000109224011092230110922A016F
:100600001092290180910E0190910F01A09110018B
:10061000B09111018C329140A105B10550F00E94BA
:100620006E0110920E0110920F01109210011092A3
:1006300011018091120190911301A0911401B091C8
:100640001501883E9340A105B10550F00E94BB0101
:1006500010921201109213011092140110921501C0
:100660008091160190911701A0911801B091190184
:100670000397A105B10550F00E94FD0110921601EB
:100680001092170110921801109219010E949A02FB
:10069000000080911E018823E1F310921E018091D9
:1006A0000E0190910F01A0911001B09111010196DE
:1006B000A11DB11D80930E0190930F01A093100115
:1006C000B09311018091120190911301A091140136
:1006D000B09115010196A11DB11D80931201909357
:1006E0001301A0931401B09315018091160190910C
:1006F0001701A0911801B09119010196A11DB11D1A
:100700008093160190931701A0931801B0931901DB
:0607100079CFF894FFCF41
:1007160000000002000000006700000000002C013D
:0E0726000000E8030000960000000100000043
:00000001FF
